{
  "_format": "hh-sol-artifact-1",
  "contractName": "Marketplace",
  "sourceName": "contracts/Marketplace.sol",
  "abi": [
    {
      "inputs": [
        {
          "internalType": "address",
          "name": "_allowedNFT",
          "type": "address"
        },
        {
          "internalType": "address",
          "name": "_tokenAddress",
          "type": "address"
        }
      ],
      "stateMutability": "nonpayable",
      "type": "constructor"
    },
    {
      "anonymous": false,
      "inputs": [
        {
          "indexed": false,
          "internalType": "address",
          "name": "_nftAddress",
          "type": "address"
        },
        {
          "indexed": false,
          "internalType": "uint256",
          "name": "_tokenId",
          "type": "uint256"
        },
        {
          "indexed": false,
          "internalType": "uint256",
          "name": "_tokenPrice",
          "type": "uint256"
        },
        {
          "indexed": false,
          "internalType": "address",
          "name": "_seller",
          "type": "address"
        },
        {
          "indexed": false,
          "internalType": "address",
          "name": "_buyer",
          "type": "address"
        }
      ],
      "name": "BuyItem",
      "type": "event"
    },
    {
      "anonymous": false,
      "inputs": [
        {
          "indexed": false,
          "internalType": "address",
          "name": "_seller",
          "type": "address"
        },
        {
          "indexed": false,
          "internalType": "uint256",
          "name": "_itemId",
          "type": "uint256"
        }
      ],
      "name": "CancelSell",
      "type": "event"
    },
    {
      "anonymous": false,
      "inputs": [
        {
          "indexed": false,
          "internalType": "address",
          "name": "_nftAddress",
          "type": "address"
        },
        {
          "indexed": false,
          "internalType": "uint256",
          "name": "_tokenId",
          "type": "uint256"
        },
        {
          "indexed": false,
          "internalType": "uint256",
          "name": "_tokenPrice",
          "type": "uint256"
        },
        {
          "indexed": false,
          "internalType": "address",
          "name": "_seller",
          "type": "address"
        }
      ],
      "name": "CreateItemSale",
      "type": "event"
    },
    {
      "anonymous": false,
      "inputs": [
        {
          "indexed": true,
          "internalType": "address",
          "name": "previousOwner",
          "type": "address"
        },
        {
          "indexed": true,
          "internalType": "address",
          "name": "newOwner",
          "type": "address"
        }
      ],
      "name": "OwnershipTransferred",
      "type": "event"
    },
    {
      "inputs": [
        {
          "internalType": "uint256",
          "name": "_itemId",
          "type": "uint256"
        }
      ],
      "name": "buyItem",
      "outputs": [],
      "stateMutability": "payable",
      "type": "function"
    },
    {
      "inputs": [
        {
          "internalType": "uint256",
          "name": "_itemId",
          "type": "uint256"
        }
      ],
      "name": "cancelSell",
      "outputs": [],
      "stateMutability": "nonpayable",
      "type": "function"
    },
    {
      "inputs": [
        {
          "internalType": "address",
          "name": "_nftAddress",
          "type": "address"
        },
        {
          "internalType": "uint256",
          "name": "_tokenId",
          "type": "uint256"
        },
        {
          "internalType": "uint256",
          "name": "_price",
          "type": "uint256"
        }
      ],
      "name": "createMarketItem",
      "outputs": [],
      "stateMutability": "nonpayable",
      "type": "function"
    },
    {
      "inputs": [
        {
          "internalType": "uint256",
          "name": "itemId",
          "type": "uint256"
        }
      ],
      "name": "getMarketItem",
      "outputs": [
        {
          "components": [
            {
              "internalType": "uint256",
              "name": "itemId",
              "type": "uint256"
            },
            {
              "internalType": "address",
              "name": "nftAddress",
              "type": "address"
            },
            {
              "internalType": "uint256",
              "name": "tokenId",
              "type": "uint256"
            },
            {
              "internalType": "address",
              "name": "seller",
              "type": "address"
            },
            {
              "internalType": "address",
              "name": "buyer",
              "type": "address"
            },
            {
              "internalType": "uint256",
              "name": "price",
              "type": "uint256"
            },
            {
              "internalType": "bool",
              "name": "sold",
              "type": "bool"
            },
            {
              "internalType": "bool",
              "name": "isCanceled",
              "type": "bool"
            },
            {
              "internalType": "uint256",
              "name": "timeCreated",
              "type": "uint256"
            },
            {
              "internalType": "uint256",
              "name": "timeSold",
              "type": "uint256"
            }
          ],
          "internalType": "struct Marketplace.MarketItem",
          "name": "",
          "type": "tuple"
        }
      ],
      "stateMutability": "view",
      "type": "function"
    },
    {
      "inputs": [],
      "name": "getMarketItems",
      "outputs": [
        {
          "components": [
            {
              "internalType": "uint256",
              "name": "itemId",
              "type": "uint256"
            },
            {
              "internalType": "address",
              "name": "nftAddress",
              "type": "address"
            },
            {
              "internalType": "uint256",
              "name": "tokenId",
              "type": "uint256"
            },
            {
              "internalType": "address",
              "name": "seller",
              "type": "address"
            },
            {
              "internalType": "address",
              "name": "buyer",
              "type": "address"
            },
            {
              "internalType": "uint256",
              "name": "price",
              "type": "uint256"
            },
            {
              "internalType": "bool",
              "name": "sold",
              "type": "bool"
            },
            {
              "internalType": "bool",
              "name": "isCanceled",
              "type": "bool"
            },
            {
              "internalType": "uint256",
              "name": "timeCreated",
              "type": "uint256"
            },
            {
              "internalType": "uint256",
              "name": "timeSold",
              "type": "uint256"
            }
          ],
          "internalType": "struct Marketplace.MarketItem[]",
          "name": "",
          "type": "tuple[]"
        }
      ],
      "stateMutability": "view",
      "type": "function"
    },
    {
      "inputs": [
        {
          "internalType": "uint256",
          "name": "",
          "type": "uint256"
        }
      ],
      "name": "marketItem",
      "outputs": [
        {
          "internalType": "uint256",
          "name": "itemId",
          "type": "uint256"
        },
        {
          "internalType": "address",
          "name": "nftAddress",
          "type": "address"
        },
        {
          "internalType": "uint256",
          "name": "tokenId",
          "type": "uint256"
        },
        {
          "internalType": "address",
          "name": "seller",
          "type": "address"
        },
        {
          "internalType": "address",
          "name": "buyer",
          "type": "address"
        },
        {
          "internalType": "uint256",
          "name": "price",
          "type": "uint256"
        },
        {
          "internalType": "bool",
          "name": "sold",
          "type": "bool"
        },
        {
          "internalType": "bool",
          "name": "isCanceled",
          "type": "bool"
        },
        {
          "internalType": "uint256",
          "name": "timeCreated",
          "type": "uint256"
        },
        {
          "internalType": "uint256",
          "name": "timeSold",
          "type": "uint256"
        }
      ],
      "stateMutability": "view",
      "type": "function"
    },
    {
      "inputs": [],
      "name": "owner",
      "outputs": [
        {
          "internalType": "address",
          "name": "",
          "type": "address"
        }
      ],
      "stateMutability": "view",
      "type": "function"
    },
    {
      "inputs": [],
      "name": "renounceOwnership",
      "outputs": [],
      "stateMutability": "nonpayable",
      "type": "function"
    },
    {
      "inputs": [
        {
          "internalType": "address",
          "name": "_nftAddress",
          "type": "address"
        },
        {
          "internalType": "bool",
          "name": "_license",
          "type": "bool"
        }
      ],
      "name": "setAllowedNFT",
      "outputs": [],
      "stateMutability": "nonpayable",
      "type": "function"
    },
    {
      "inputs": [],
      "name": "tokenBase",
      "outputs": [
        {
          "internalType": "address",
          "name": "",
          "type": "address"
        }
      ],
      "stateMutability": "view",
      "type": "function"
    },
    {
      "inputs": [
        {
          "internalType": "address",
          "name": "newOwner",
          "type": "address"
        }
      ],
      "name": "transferOwnership",
      "outputs": [],
      "stateMutability": "nonpayable",
      "type": "function"
    }
  ],
  "bytecode": "0x608060405234801561001057600080fd5b50604051620013ef380380620013ef833981016040819052610031916100e6565b61003a3361007a565b6001600160a01b039182166000908152600360205260409020805460ff1916600117905560058054919092166001600160a01b0319909116179055610119565b600080546001600160a01b038381166001600160a01b0319831681178455604051919092169283917f8be0079c531659141344cd1fd0a4f28419497f9722a3daafe3b4186f6b6457e09190a35050565b80516001600160a01b03811681146100e157600080fd5b919050565b600080604083850312156100f957600080fd5b610102836100ca565b9150610110602084016100ca565b90509250929050565b6112c680620001296000396000f3fe60806040526004361061009c5760003560e01c80638da5cb5b116100645780638da5cb5b146101fb578063aea082551461022d578063b61daaee1461024d578063c7be7a491461026d578063e7fb74c71461029a578063f2fde38b146102ad57600080fd5b806307c9cd45146100a157806322d4efd8146100c357806329aa3a42146101a457806358eb2df5146101c6578063715018a6146101e6575b600080fd5b3480156100ad57600080fd5b506100c16100bc36600461104a565b6102cd565b005b3480156100cf57600080fd5b506101456100de36600461104a565b600460208190526000918252604090912080546001820154600283015460038401549484015460058501546006860154600787015460089097015495976001600160a01b039586169794969086169590931693919260ff808316936101009093041691908a565b604080519a8b526001600160a01b03998a1660208c01528a0197909752948716606089015295909216608087015260a0860152151560c085015291151560e0840152610100830191909152610120820152610140015b60405180910390f35b3480156101b057600080fd5b506101b9610480565b60405161019b9190611148565b3480156101d257600080fd5b506100c16101e1366004610ff8565b61060e565b3480156101f257600080fd5b506100c1610979565b34801561020757600080fd5b506000546001600160a01b03165b6040516001600160a01b03909116815260200161019b565b34801561023957600080fd5b506100c1610248366004610fbf565b6109af565b34801561025957600080fd5b50600554610215906001600160a01b031681565b34801561027957600080fd5b5061028d61028836600461104a565b610a04565b60405161019b91906111cc565b6100c16102a836600461104a565b610aa5565b3480156102b957600080fd5b506100c16102c8366004610f7e565b610e21565b6000818152600460205260409020600681015460ff161561032a5760405162461bcd60e51b8152602060048201526012602482015271125d195b481a185cc81899595b881cdbdb1960721b60448201526064015b60405180910390fd5b6006810154610100900460ff161561037b5760405162461bcd60e51b8152602060048201526014602482015273125d195b481a185cc81899595b8818d85b98d95b60621b6044820152606401610321565b60038101546001600160a01b031633146103c25760405162461bcd60e51b81526020600482015260086024820152672337b93134b232b760c11b6044820152606401610321565b60068101805461ff001916610100179055600181015460028201546040516323b872dd60e01b81526001600160a01b03909216916323b872dd9161040c9130913391600401611124565b600060405180830381600087803b15801561042657600080fd5b505af115801561043a573d6000803e3d6000fd5b505082546040805133815260208101929092527f1d9a1b6495eda6cce8aef549d9c7b628d901a68f6eb7d7629458b006ab79cb0693500190505b60405180910390a15050565b6060600061048d60015490565b9050600061049a60025490565b6001546104a791906111f9565b90506000808267ffffffffffffffff8111156104c5576104c5611257565b6040519080825280602002602001820160405280156104fe57816020015b6104eb610f0c565b8152602001906001900390816104e35790505b50905060005b8481101561060557600081815260046020819052604090912001546001600160a01b03166105f3576000818152600460208181526040928390208351610140810185528154815260018201546001600160a01b039081169382019390935260028201549481019490945260038101548216606085015291820154166080830152600581015460a0830152600681015460ff808216151560c08501526101009182900416151560e0840152600782015490830152600881015461012083015283519091908490869081106105d9576105d9611241565b60209081029190910101526105ef6001856111e1565b9350505b806105fd81611210565b915050610504565b50949350505050565b6001600160a01b03831660009081526003602052604090205460ff166106695760405162461bcd60e51b815260206004820152601060248201526f13db9b1e48185b1b1bddd9590813919560821b6044820152606401610321565b6040516331a9108f60e11b81526004810183905233906001600160a01b03851690636352211e9060240160206040518083038186803b1580156106ab57600080fd5b505afa1580156106bf573d6000803e3d6000fd5b505050506040513d601f19601f820116820180604052508101906106e39190610fa2565b6001600160a01b03161461072c5760405162461bcd60e51b815260206004820152601060248201526f27b7363c903a37b5b2b71037bbb732b960811b6044820152606401610321565b600061073760015490565b9050604051806101400160405280828152602001856001600160a01b03168152602001848152602001336001600160a01b0316815260200160006001600160a01b031681526020018381526020016000151581526020016000151581526020014281526020016000815250600460008381526020019081526020016000206000820151816000015560208201518160010160006101000a8154816001600160a01b0302191690836001600160a01b031602179055506040820151816002015560608201518160030160006101000a8154816001600160a01b0302191690836001600160a01b0316021790555060808201518160040160006101000a8154816001600160a01b0302191690836001600160a01b0316021790555060a0820151816005015560c08201518160060160006101000a81548160ff02191690831515021790555060e08201518160060160016101000a81548160ff02191690831515021790555061010082015181600701556101208201518160080155905050836001600160a01b03166323b872dd3330866040518463ffffffff1660e01b81526004016108e393929190611124565b600060405180830381600087803b1580156108fd57600080fd5b505af1158015610911573d6000803e3d6000fd5b50505050610923600180546001019055565b604080516001600160a01b0386168152602081018590529081018390523360608201527f77909a86d80fee4d1f9885d102741b4b8ce2d434615a6296bc8c0a7f30743a3a9060800160405180910390a150505050565b6000546001600160a01b031633146109a35760405162461bcd60e51b815260040161032190611197565b6109ad6000610ebc565b565b6000546001600160a01b031633146109d95760405162461bcd60e51b815260040161032190611197565b6001600160a01b03919091166000908152600360205260409020805460ff1916911515919091179055565b610a0c610f0c565b506000908152600460208181526040928390208351610140810185528154815260018201546001600160a01b039081169382019390935260028201549481019490945260038101548216606085015291820154166080830152600581015460a0830152600681015460ff808216151560c08501526101009182900416151560e08401526007820154908301526008015461012082015290565b600081815260046020819052604091829020600580820154905493516370a0823160e01b81523393810193909352909290916001600160a01b03909116906370a082319060240160206040518083038186803b158015610b0457600080fd5b505afa158015610b18573d6000803e3d6000fd5b505050506040513d601f19601f82011682018060405250810190610b3c9190611063565b1015610b815760405162461bcd60e51b8152602060048201526014602482015273496e73756666696369656e742062616c616e636560601b6044820152606401610321565b600681015460ff1615610bcb5760405162461bcd60e51b8152602060048201526012602482015271125d195b481a185cc81899595b881cdbdb1960721b6044820152606401610321565b6006810154610100900460ff1615610c1e5760405162461bcd60e51b8152602060048201526016602482015275125d195b481a185cc81899595b8818d85b98d95b195960521b6044820152606401610321565b60038101546001600160a01b0316331415610c7b5760405162461bcd60e51b815260206004820152601760248201527f43616e2774206275792066726f6d20796f757273656c660000000000000000006044820152606401610321565b600580546003830154918301546040516323b872dd60e01b81526001600160a01b03928316936323b872dd93610cba9333939290911691600401611124565b602060405180830381600087803b158015610cd457600080fd5b505af1158015610ce8573d6000803e3d6000fd5b505050506040513d601f19601f82011682018060405250810190610d0c919061102d565b50600181015460028201546040516323b872dd60e01b81526001600160a01b03909216916323b872dd91610d469130913391600401611124565b600060405180830381600087803b158015610d6057600080fd5b505af1158015610d74573d6000803e3d6000fd5b5050506004820180546001600160a01b031916331790555060068101805460ff19166001179055426008820155610daf600280546001019055565b60018101546002820154600583015460038401546004850154604080516001600160a01b0396871681526020810195909552840192909252831660608301529190911660808201527f42a89ade7a7ed8c0bec679a55fadff290c178d33bdef3b702a23e96649db94229060a001610474565b6000546001600160a01b03163314610e4b5760405162461bcd60e51b815260040161032190611197565b6001600160a01b038116610eb05760405162461bcd60e51b815260206004820152602660248201527f4f776e61626c653a206e6577206f776e657220697320746865207a65726f206160448201526564647265737360d01b6064820152608401610321565b610eb981610ebc565b50565b600080546001600160a01b038381166001600160a01b0319831681178455604051919092169283917f8be0079c531659141344cd1fd0a4f28419497f9722a3daafe3b4186f6b6457e09190a35050565b6040518061014001604052806000815260200160006001600160a01b031681526020016000815260200160006001600160a01b0316815260200160006001600160a01b031681526020016000815260200160001515815260200160001515815260200160008152602001600081525090565b600060208284031215610f9057600080fd5b8135610f9b8161126d565b9392505050565b600060208284031215610fb457600080fd5b8151610f9b8161126d565b60008060408385031215610fd257600080fd5b8235610fdd8161126d565b91506020830135610fed81611282565b809150509250929050565b60008060006060848603121561100d57600080fd5b83356110188161126d565b95602085013595506040909401359392505050565b60006020828403121561103f57600080fd5b8151610f9b81611282565b60006020828403121561105c57600080fd5b5035919050565b60006020828403121561107557600080fd5b5051919050565b80518252602081015161109a60208401826001600160a01b03169052565b506040810151604083015260608101516110bf60608401826001600160a01b03169052565b5060808101516110da60808401826001600160a01b03169052565b5060a081015160a083015260c08101516110f860c084018215159052565b5060e081015161110c60e084018215159052565b50610100818101519083015261012090810151910152565b6001600160a01b039384168152919092166020820152604081019190915260600190565b6020808252825182820181905260009190848201906040850190845b8181101561118b5761117783855161107c565b928401926101409290920191600101611164565b50909695505050505050565b6020808252818101527f4f776e61626c653a2063616c6c6572206973206e6f7420746865206f776e6572604082015260600190565b61014081016111db828461107c565b92915050565b600082198211156111f4576111f461122b565b500190565b60008282101561120b5761120b61122b565b500390565b60006000198214156112245761122461122b565b5060010190565b634e487b7160e01b600052601160045260246000fd5b634e487b7160e01b600052603260045260246000fd5b634e487b7160e01b600052604160045260246000fd5b6001600160a01b0381168114610eb957600080fd5b8015158114610eb957600080fdfea2646970667358221220b98f5485bd60b81aa74770ba8dd575f9aa4be1b8c1595d00eb660e933018881064736f6c63430008060033",
  "linkReferences": {},
  "deployedLinkReferences": {}
}