{
  "_format": "hh-sol-artifact-1",
  "contractName": "NFT721",
  "sourceName": "contracts/NFT721.sol",
  "abi": [
    {
      "inputs": [],
      "stateMutability": "nonpayable",
      "type": "constructor"
    },
    {
      "anonymous": false,
      "inputs": [
        {
          "indexed": true,
          "internalType": "address",
          "name": "owner",
          "type": "address"
        },
        {
          "indexed": true,
          "internalType": "address",
          "name": "approved",
          "type": "address"
        },
        {
          "indexed": true,
          "internalType": "uint256",
          "name": "tokenId",
          "type": "uint256"
        }
      ],
      "name": "Approval",
      "type": "event"
    },
    {
      "anonymous": false,
      "inputs": [
        {
          "indexed": true,
          "internalType": "address",
          "name": "owner",
          "type": "address"
        },
        {
          "indexed": true,
          "internalType": "address",
          "name": "operator",
          "type": "address"
        },
        {
          "indexed": false,
          "internalType": "bool",
          "name": "approved",
          "type": "bool"
        }
      ],
      "name": "ApprovalForAll",
      "type": "event"
    },
    {
      "anonymous": false,
      "inputs": [
        {
          "indexed": true,
          "internalType": "address",
          "name": "previousOwner",
          "type": "address"
        },
        {
          "indexed": true,
          "internalType": "address",
          "name": "newOwner",
          "type": "address"
        }
      ],
      "name": "OwnershipTransferred",
      "type": "event"
    },
    {
      "anonymous": false,
      "inputs": [
        {
          "indexed": true,
          "internalType": "address",
          "name": "from",
          "type": "address"
        },
        {
          "indexed": true,
          "internalType": "address",
          "name": "to",
          "type": "address"
        },
        {
          "indexed": true,
          "internalType": "uint256",
          "name": "tokenId",
          "type": "uint256"
        }
      ],
      "name": "Transfer",
      "type": "event"
    },
    {
      "inputs": [
        {
          "internalType": "address",
          "name": "to",
          "type": "address"
        },
        {
          "internalType": "uint256",
          "name": "tokenId",
          "type": "uint256"
        }
      ],
      "name": "approve",
      "outputs": [],
      "stateMutability": "nonpayable",
      "type": "function"
    },
    {
      "inputs": [
        {
          "internalType": "address",
          "name": "owner",
          "type": "address"
        }
      ],
      "name": "balanceOf",
      "outputs": [
        {
          "internalType": "uint256",
          "name": "",
          "type": "uint256"
        }
      ],
      "stateMutability": "view",
      "type": "function"
    },
    {
      "inputs": [
        {
          "internalType": "string",
          "name": "_uri",
          "type": "string"
        }
      ],
      "name": "createNFT",
      "outputs": [],
      "stateMutability": "nonpayable",
      "type": "function"
    },
    {
      "inputs": [
        {
          "internalType": "uint256",
          "name": "tokenId",
          "type": "uint256"
        }
      ],
      "name": "getApproved",
      "outputs": [
        {
          "internalType": "address",
          "name": "",
          "type": "address"
        }
      ],
      "stateMutability": "view",
      "type": "function"
    },
    {
      "inputs": [],
      "name": "getTotalNFT",
      "outputs": [
        {
          "internalType": "uint256",
          "name": "",
          "type": "uint256"
        }
      ],
      "stateMutability": "view",
      "type": "function"
    },
    {
      "inputs": [
        {
          "internalType": "address",
          "name": "owner",
          "type": "address"
        },
        {
          "internalType": "address",
          "name": "operator",
          "type": "address"
        }
      ],
      "name": "isApprovedForAll",
      "outputs": [
        {
          "internalType": "bool",
          "name": "",
          "type": "bool"
        }
      ],
      "stateMutability": "view",
      "type": "function"
    },
    {
      "inputs": [],
      "name": "name",
      "outputs": [
        {
          "internalType": "string",
          "name": "",
          "type": "string"
        }
      ],
      "stateMutability": "view",
      "type": "function"
    },
    {
      "inputs": [],
      "name": "owner",
      "outputs": [
        {
          "internalType": "address",
          "name": "",
          "type": "address"
        }
      ],
      "stateMutability": "view",
      "type": "function"
    },
    {
      "inputs": [
        {
          "internalType": "uint256",
          "name": "tokenId",
          "type": "uint256"
        }
      ],
      "name": "ownerOf",
      "outputs": [
        {
          "internalType": "address",
          "name": "",
          "type": "address"
        }
      ],
      "stateMutability": "view",
      "type": "function"
    },
    {
      "inputs": [],
      "name": "renounceOwnership",
      "outputs": [],
      "stateMutability": "nonpayable",
      "type": "function"
    },
    {
      "inputs": [
        {
          "internalType": "address",
          "name": "from",
          "type": "address"
        },
        {
          "internalType": "address",
          "name": "to",
          "type": "address"
        },
        {
          "internalType": "uint256",
          "name": "tokenId",
          "type": "uint256"
        }
      ],
      "name": "safeTransferFrom",
      "outputs": [],
      "stateMutability": "nonpayable",
      "type": "function"
    },
    {
      "inputs": [
        {
          "internalType": "address",
          "name": "from",
          "type": "address"
        },
        {
          "internalType": "address",
          "name": "to",
          "type": "address"
        },
        {
          "internalType": "uint256",
          "name": "tokenId",
          "type": "uint256"
        },
        {
          "internalType": "bytes",
          "name": "_data",
          "type": "bytes"
        }
      ],
      "name": "safeTransferFrom",
      "outputs": [],
      "stateMutability": "nonpayable",
      "type": "function"
    },
    {
      "inputs": [
        {
          "internalType": "address",
          "name": "operator",
          "type": "address"
        },
        {
          "internalType": "bool",
          "name": "approved",
          "type": "bool"
        }
      ],
      "name": "setApprovalForAll",
      "outputs": [],
      "stateMutability": "nonpayable",
      "type": "function"
    },
    {
      "inputs": [
        {
          "internalType": "bytes4",
          "name": "interfaceId",
          "type": "bytes4"
        }
      ],
      "name": "supportsInterface",
      "outputs": [
        {
          "internalType": "bool",
          "name": "",
          "type": "bool"
        }
      ],
      "stateMutability": "view",
      "type": "function"
    },
    {
      "inputs": [],
      "name": "symbol",
      "outputs": [
        {
          "internalType": "string",
          "name": "",
          "type": "string"
        }
      ],
      "stateMutability": "view",
      "type": "function"
    },
    {
      "inputs": [
        {
          "internalType": "uint256",
          "name": "tokenId",
          "type": "uint256"
        }
      ],
      "name": "tokenURI",
      "outputs": [
        {
          "internalType": "string",
          "name": "",
          "type": "string"
        }
      ],
      "stateMutability": "view",
      "type": "function"
    },
    {
      "inputs": [
        {
          "internalType": "address",
          "name": "from",
          "type": "address"
        },
        {
          "internalType": "address",
          "name": "to",
          "type": "address"
        },
        {
          "internalType": "uint256",
          "name": "tokenId",
          "type": "uint256"
        }
      ],
      "name": "transferFrom",
      "outputs": [],
      "stateMutability": "nonpayable",
      "type": "function"
    },
    {
      "inputs": [
        {
          "internalType": "address",
          "name": "newOwner",
          "type": "address"
        }
      ],
      "name": "transferOwnership",
      "outputs": [],
      "stateMutability": "nonpayable",
      "type": "function"
    }
  ],
  "bytecode": "0x60806040523480156200001157600080fd5b506040805180820182526006815265135e4813919560d21b60208083019182528351808501909452600384526213919560ea1b9084015281519192916200005b91600091620000ea565b50805162000071906001906020840190620000ea565b5050506200008e620000886200009460201b60201c565b62000098565b620001cd565b3390565b600780546001600160a01b038381166001600160a01b0319831681179093556040519116919082907f8be0079c531659141344cd1fd0a4f28419497f9722a3daafe3b4186f6b6457e090600090a35050565b828054620000f89062000190565b90600052602060002090601f0160209004810192826200011c576000855562000167565b82601f106200013757805160ff191683800117855562000167565b8280016001018555821562000167579182015b82811115620001675782518255916020019190600101906200014a565b506200017592915062000179565b5090565b5b808211156200017557600081556001016200017a565b600181811c90821680620001a557607f821691505b60208210811415620001c757634e487b7160e01b600052602260045260246000fd5b50919050565b61195d80620001dd6000396000f3fe608060405234801561001057600080fd5b50600436106101165760003560e01c80638da5cb5b116100a2578063bcf16f2d11610071578063bcf16f2d14610239578063c87b56dd14610241578063da2ed03e14610254578063e985e9c514610267578063f2fde38b146102a357600080fd5b80638da5cb5b146101fa57806395d89b411461020b578063a22cb46514610213578063b88d4fde1461022657600080fd5b806323b872dd116100e957806323b872dd1461019857806342842e0e146101ab5780636352211e146101be57806370a08231146101d1578063715018a6146101f257600080fd5b806301ffc9a71461011b57806306fdde0314610143578063081812fc14610158578063095ea7b314610183575b600080fd5b61012e6101293660046115cd565b6102b6565b60405190151581526020015b60405180910390f35b61014b610308565b60405161013a919061172a565b61016b610166366004611679565b61039a565b6040516001600160a01b03909116815260200161013a565b6101966101913660046115a3565b610427565b005b6101966101a636600461144f565b61053d565b6101966101b936600461144f565b61056e565b61016b6101cc366004611679565b610589565b6101e46101df366004611401565b610600565b60405190815260200161013a565b610196610687565b6007546001600160a01b031661016b565b61014b6106ed565b610196610221366004611567565b6106fc565b61019661023436600461148b565b61070b565b6101e4610743565b61014b61024f366004611679565b610753565b610196610262366004611607565b6108ca565b61012e61027536600461141c565b6001600160a01b03918216600090815260056020908152604080832093909416825291909152205460ff1690565b6101966102b1366004611401565b61092f565b60006001600160e01b031982166380ac58cd60e01b14806102e757506001600160e01b03198216635b5e139f60e01b145b8061030257506301ffc9a760e01b6001600160e01b03198316145b92915050565b6060600080546103179061184f565b80601f01602080910402602001604051908101604052809291908181526020018280546103439061184f565b80156103905780601f1061036557610100808354040283529160200191610390565b820191906000526020600020905b81548152906001019060200180831161037357829003601f168201915b5050505050905090565b60006103a5826109fa565b61040b5760405162461bcd60e51b815260206004820152602c60248201527f4552433732313a20617070726f76656420717565727920666f72206e6f6e657860448201526b34b9ba32b73a103a37b5b2b760a11b60648201526084015b60405180910390fd5b506000908152600460205260409020546001600160a01b031690565b600061043282610589565b9050806001600160a01b0316836001600160a01b031614156104a05760405162461bcd60e51b815260206004820152602160248201527f4552433732313a20617070726f76616c20746f2063757272656e74206f776e656044820152603960f91b6064820152608401610402565b336001600160a01b03821614806104bc57506104bc8133610275565b61052e5760405162461bcd60e51b815260206004820152603860248201527f4552433732313a20617070726f76652063616c6c6572206973206e6f74206f7760448201527f6e6572206e6f7220617070726f76656420666f7220616c6c00000000000000006064820152608401610402565b6105388383610a17565b505050565b6105473382610a85565b6105635760405162461bcd60e51b81526004016104029061178f565b610538838383610b6e565b6105388383836040518060200160405280600081525061070b565b6000818152600260205260408120546001600160a01b0316806103025760405162461bcd60e51b815260206004820152602960248201527f4552433732313a206f776e657220717565727920666f72206e6f6e657869737460448201526832b73a103a37b5b2b760b91b6064820152608401610402565b60006001600160a01b03821661066b5760405162461bcd60e51b815260206004820152602a60248201527f4552433732313a2062616c616e636520717565727920666f7220746865207a65604482015269726f206164647265737360b01b6064820152608401610402565b506001600160a01b031660009081526003602052604090205490565b6007546001600160a01b031633146106e15760405162461bcd60e51b815260206004820181905260248201527f4f776e61626c653a2063616c6c6572206973206e6f7420746865206f776e65726044820152606401610402565b6106eb6000610d0a565b565b6060600180546103179061184f565b610707338383610d5c565b5050565b6107153383610a85565b6107315760405162461bcd60e51b81526004016104029061178f565b61073d84848484610e2b565b50505050565b600061074e60085490565b905090565b606061075e826109fa565b6107c45760405162461bcd60e51b815260206004820152603160248201527f45524337323155524953746f726167653a2055524920717565727920666f72206044820152703737b732bc34b9ba32b73a103a37b5b2b760791b6064820152608401610402565b600082815260066020526040812080546107dd9061184f565b80601f01602080910402602001604051908101604052809291908181526020018280546108099061184f565b80156108565780601f1061082b57610100808354040283529160200191610856565b820191906000526020600020905b81548152906001019060200180831161083957829003601f168201915b50505050509050600061087460408051602081019091526000815290565b9050805160001415610887575092915050565b8151156108b95780826040516020016108a19291906116be565b60405160208183030381529060405292505050919050565b6108c284610e5e565b949350505050565b60006108d560085490565b90506108e13382610f36565b6109218184848080601f016020809104026020016040519081016040528093929190818152602001838380828437600092019190915250610f5092505050565b610538600880546001019055565b6007546001600160a01b031633146109895760405162461bcd60e51b815260206004820181905260248201527f4f776e61626c653a2063616c6c6572206973206e6f7420746865206f776e65726044820152606401610402565b6001600160a01b0381166109ee5760405162461bcd60e51b815260206004820152602660248201527f4f776e61626c653a206e6577206f776e657220697320746865207a65726f206160448201526564647265737360d01b6064820152608401610402565b6109f781610d0a565b50565b6000908152600260205260409020546001600160a01b0316151590565b600081815260046020526040902080546001600160a01b0319166001600160a01b0384169081179091558190610a4c82610589565b6001600160a01b03167f8c5be1e5ebec7d5bd14f71427d1e84f3dd0314c0f7b2291e5b200ac8c7c3b92560405160405180910390a45050565b6000610a90826109fa565b610af15760405162461bcd60e51b815260206004820152602c60248201527f4552433732313a206f70657261746f7220717565727920666f72206e6f6e657860448201526b34b9ba32b73a103a37b5b2b760a11b6064820152608401610402565b6000610afc83610589565b9050806001600160a01b0316846001600160a01b03161480610b4357506001600160a01b0380821660009081526005602090815260408083209388168352929052205460ff165b806108c25750836001600160a01b0316610b5c8461039a565b6001600160a01b031614949350505050565b826001600160a01b0316610b8182610589565b6001600160a01b031614610be55760405162461bcd60e51b815260206004820152602560248201527f4552433732313a207472616e736665722066726f6d20696e636f72726563742060448201526437bbb732b960d91b6064820152608401610402565b6001600160a01b038216610c475760405162461bcd60e51b8152602060048201526024808201527f4552433732313a207472616e7366657220746f20746865207a65726f206164646044820152637265737360e01b6064820152608401610402565b610c52600082610a17565b6001600160a01b0383166000908152600360205260408120805460019290610c7b90849061180c565b90915550506001600160a01b0382166000908152600360205260408120805460019290610ca99084906117e0565b909155505060008181526002602052604080822080546001600160a01b0319166001600160a01b0386811691821790925591518493918716917fddf252ad1be2c89b69c2b068fc378daa952ba7f163c4a11628f55a4df523b3ef91a4505050565b600780546001600160a01b038381166001600160a01b0319831681179093556040519116919082907f8be0079c531659141344cd1fd0a4f28419497f9722a3daafe3b4186f6b6457e090600090a35050565b816001600160a01b0316836001600160a01b03161415610dbe5760405162461bcd60e51b815260206004820152601960248201527f4552433732313a20617070726f766520746f2063616c6c6572000000000000006044820152606401610402565b6001600160a01b03838116600081815260056020908152604080832094871680845294825291829020805460ff191686151590811790915591519182527f17307eab39ab6107e8899845ad3d59bd9653f200f220920489ca2b5937696c31910160405180910390a3505050565b610e36848484610b6e565b610e4284848484610fdb565b61073d5760405162461bcd60e51b81526004016104029061173d565b6060610e69826109fa565b610ecd5760405162461bcd60e51b815260206004820152602f60248201527f4552433732314d657461646174613a2055524920717565727920666f72206e6f60448201526e3732bc34b9ba32b73a103a37b5b2b760891b6064820152608401610402565b6000610ee460408051602081019091526000815290565b90506000815111610f045760405180602001604052806000815250610f2f565b80610f0e846110e8565b604051602001610f1f9291906116be565b6040516020818303038152906040525b9392505050565b6107078282604051806020016040528060008152506111e6565b610f59826109fa565b610fbc5760405162461bcd60e51b815260206004820152602e60248201527f45524337323155524953746f726167653a2055524920736574206f66206e6f6e60448201526d32bc34b9ba32b73a103a37b5b2b760911b6064820152608401610402565b600082815260066020908152604090912082516105389284019061134c565b60006001600160a01b0384163b156110dd57604051630a85bd0160e11b81526001600160a01b0385169063150b7a029061101f9033908990889088906004016116ed565b602060405180830381600087803b15801561103957600080fd5b505af1925050508015611069575060408051601f3d908101601f19168201909252611066918101906115ea565b60015b6110c3573d808015611097576040519150601f19603f3d011682016040523d82523d6000602084013e61109c565b606091505b5080516110bb5760405162461bcd60e51b81526004016104029061173d565b805181602001fd5b6001600160e01b031916630a85bd0160e11b1490506108c2565b506001949350505050565b60608161110c5750506040805180820190915260018152600360fc1b602082015290565b8160005b811561113657806111208161188a565b915061112f9050600a836117f8565b9150611110565b60008167ffffffffffffffff811115611151576111516118fb565b6040519080825280601f01601f19166020018201604052801561117b576020820181803683370190505b5090505b84156108c25761119060018361180c565b915061119d600a866118a5565b6111a89060306117e0565b60f81b8183815181106111bd576111bd6118e5565b60200101906001600160f81b031916908160001a9053506111df600a866117f8565b945061117f565b6111f08383611219565b6111fd6000848484610fdb565b6105385760405162461bcd60e51b81526004016104029061173d565b6001600160a01b03821661126f5760405162461bcd60e51b815260206004820181905260248201527f4552433732313a206d696e7420746f20746865207a65726f20616464726573736044820152606401610402565b611278816109fa565b156112c55760405162461bcd60e51b815260206004820152601c60248201527f4552433732313a20746f6b656e20616c7265616479206d696e746564000000006044820152606401610402565b6001600160a01b03821660009081526003602052604081208054600192906112ee9084906117e0565b909155505060008181526002602052604080822080546001600160a01b0319166001600160a01b03861690811790915590518392907fddf252ad1be2c89b69c2b068fc378daa952ba7f163c4a11628f55a4df523b3ef908290a45050565b8280546113589061184f565b90600052602060002090601f01602090048101928261137a57600085556113c0565b82601f1061139357805160ff19168380011785556113c0565b828001600101855582156113c0579182015b828111156113c05782518255916020019190600101906113a5565b506113cc9291506113d0565b5090565b5b808211156113cc57600081556001016113d1565b80356001600160a01b03811681146113fc57600080fd5b919050565b60006020828403121561141357600080fd5b610f2f826113e5565b6000806040838503121561142f57600080fd5b611438836113e5565b9150611446602084016113e5565b90509250929050565b60008060006060848603121561146457600080fd5b61146d846113e5565b925061147b602085016113e5565b9150604084013590509250925092565b600080600080608085870312156114a157600080fd5b6114aa856113e5565b93506114b8602086016113e5565b925060408501359150606085013567ffffffffffffffff808211156114dc57600080fd5b818701915087601f8301126114f057600080fd5b813581811115611502576115026118fb565b604051601f8201601f19908116603f0116810190838211818310171561152a5761152a6118fb565b816040528281528a602084870101111561154357600080fd5b82602086016020830137600060208483010152809550505050505092959194509250565b6000806040838503121561157a57600080fd5b611583836113e5565b91506020830135801515811461159857600080fd5b809150509250929050565b600080604083850312156115b657600080fd5b6115bf836113e5565b946020939093013593505050565b6000602082840312156115df57600080fd5b8135610f2f81611911565b6000602082840312156115fc57600080fd5b8151610f2f81611911565b6000806020838503121561161a57600080fd5b823567ffffffffffffffff8082111561163257600080fd5b818501915085601f83011261164657600080fd5b81358181111561165557600080fd5b86602082850101111561166757600080fd5b60209290920196919550909350505050565b60006020828403121561168b57600080fd5b5035919050565b600081518084526116aa816020860160208601611823565b601f01601f19169290920160200192915050565b600083516116d0818460208801611823565b8351908301906116e4818360208801611823565b01949350505050565b6001600160a01b038581168252841660208201526040810183905260806060820181905260009061172090830184611692565b9695505050505050565b602081526000610f2f6020830184611692565b60208082526032908201527f4552433732313a207472616e7366657220746f206e6f6e20455243373231526560408201527131b2b4bb32b91034b6b83632b6b2b73a32b960711b606082015260800190565b60208082526031908201527f4552433732313a207472616e736665722063616c6c6572206973206e6f74206f6040820152701ddb995c881b9bdc88185c1c1c9bdd9959607a1b606082015260800190565b600082198211156117f3576117f36118b9565b500190565b600082611807576118076118cf565b500490565b60008282101561181e5761181e6118b9565b500390565b60005b8381101561183e578181015183820152602001611826565b8381111561073d5750506000910152565b600181811c9082168061186357607f821691505b6020821081141561188457634e487b7160e01b600052602260045260246000fd5b50919050565b600060001982141561189e5761189e6118b9565b5060010190565b6000826118b4576118b46118cf565b500690565b634e487b7160e01b600052601160045260246000fd5b634e487b7160e01b600052601260045260246000fd5b634e487b7160e01b600052603260045260246000fd5b634e487b7160e01b600052604160045260246000fd5b6001600160e01b0319811681146109f757600080fdfea2646970667358221220694e19659db98db4fe1573babbf1b867714f090e4f7cd75307cd54df95c62e5d64736f6c63430008060033",
  "linkReferences": {},
  "deployedLinkReferences": {}
}